{
  "_format": "hh-sol-artifact-1",
  "contractName": "FlashLiquidator",
  "sourceName": "contracts/FlashLiquidator.sol",
  "abi": [
    {
      "inputs": [
        {
          "internalType": "address",
          "name": "_joetroller",
          "type": "address"
        },
        {
          "internalType": "address",
          "name": "_joeRouter",
          "type": "address"
        }
      ],
      "stateMutability": "nonpayable",
      "type": "constructor"
    },
    {
      "anonymous": false,
      "inputs": [
        {
          "indexed": false,
          "internalType": "address",
          "name": "borrower",
          "type": "address"
        },
        {
          "indexed": false,
          "internalType": "uint256",
          "name": "repayAmount",
          "type": "uint256"
        },
        {
          "indexed": false,
          "internalType": "address",
          "name": "jTokenBorrowed",
          "type": "address"
        },
        {
          "indexed": false,
          "internalType": "address",
          "name": "jTokenSupplied",
          "type": "address"
        }
      ],
      "name": "Liquidated",
      "type": "event"
    },
    {
      "anonymous": false,
      "inputs": [
        {
          "indexed": false,
          "internalType": "address",
          "name": "flashLoanToken",
          "type": "address"
        },
        {
          "indexed": false,
          "internalType": "uint256",
          "name": "profitInFlashToken",
          "type": "uint256"
        },
        {
          "indexed": false,
          "internalType": "address",
          "name": "profitSentTo",
          "type": "address"
        }
      ],
      "name": "Profit",
      "type": "event"
    },
    {
      "anonymous": false,
      "inputs": [
        {
          "indexed": false,
          "internalType": "address",
          "name": "tokenIn",
          "type": "address"
        },
        {
          "indexed": false,
          "internalType": "address",
          "name": "tokenOut",
          "type": "address"
        },
        {
          "indexed": false,
          "internalType": "uint256",
          "name": "amountIn",
          "type": "uint256"
        },
        {
          "indexed": false,
          "internalType": "uint256",
          "name": "amountOut",
          "type": "uint256"
        }
      ],
      "name": "Swap",
      "type": "event"
    },
    {
      "inputs": [],
      "name": "JOE_ROUTER",
      "outputs": [
        {
          "internalType": "contract IJoeRouter02",
          "name": "",
          "type": "address"
        }
      ],
      "stateMutability": "view",
      "type": "function"
    },
    {
      "inputs": [],
      "name": "JOE_TROLLER",
      "outputs": [
        {
          "internalType": "contract Joetroller",
          "name": "",
          "type": "address"
        }
      ],
      "stateMutability": "view",
      "type": "function"
    },
    {
      "inputs": [
        {
          "internalType": "address",
          "name": "flashloanLender",
          "type": "address"
        },
        {
          "internalType": "address",
          "name": "flashLoanToken",
          "type": "address"
        },
        {
          "internalType": "address",
          "name": "borrowerToLiquidate",
          "type": "address"
        },
        {
          "internalType": "address",
          "name": "jTokenBorrowed",
          "type": "address"
        },
        {
          "internalType": "address",
          "name": "jTokenBorrowedUnderlying",
          "type": "address"
        },
        {
          "internalType": "address",
          "name": "jTokenSupplied",
          "type": "address"
        },
        {
          "internalType": "address",
          "name": "jTokenSuppliedUnderlying",
          "type": "address"
        }
      ],
      "name": "doFlashloan",
      "outputs": [],
      "stateMutability": "nonpayable",
      "type": "function"
    },
    {
      "inputs": [
        {
          "internalType": "address",
          "name": "initiator",
          "type": "address"
        },
        {
          "internalType": "address",
          "name": "token",
          "type": "address"
        },
        {
          "internalType": "uint256",
          "name": "amount",
          "type": "uint256"
        },
        {
          "internalType": "uint256",
          "name": "fee",
          "type": "uint256"
        },
        {
          "internalType": "bytes",
          "name": "data",
          "type": "bytes"
        }
      ],
      "name": "onFlashLoan",
      "outputs": [
        {
          "internalType": "bytes32",
          "name": "",
          "type": "bytes32"
        }
      ],
      "stateMutability": "nonpayable",
      "type": "function"
    },
    {
      "inputs": [],
      "name": "owner",
      "outputs": [
        {
          "internalType": "address",
          "name": "",
          "type": "address"
        }
      ],
      "stateMutability": "view",
      "type": "function"
    },
    {
      "stateMutability": "payable",
      "type": "receive"
    }
  ],
  "bytecode": "0x60806040523480156200001157600080fd5b5060405162002b9c38038062002b9c833981810160405281019062000037919062000118565b33600260006101000a81548173ffffffffffffffffffffffffffffffffffffffff021916908373ffffffffffffffffffffffffffffffffffffffff16021790555081600160006101000a81548173ffffffffffffffffffffffffffffffffffffffff021916908373ffffffffffffffffffffffffffffffffffffffff160217905550806000806101000a81548173ffffffffffffffffffffffffffffffffffffffff021916908373ffffffffffffffffffffffffffffffffffffffff1602179055505050620001a7565b60008151905062000112816200018d565b92915050565b600080604083850312156200012c57600080fd5b60006200013c8582860162000101565b92505060206200014f8582860162000101565b9150509250929050565b600062000166826200016d565b9050919050565b600073ffffffffffffffffffffffffffffffffffffffff82169050919050565b620001988162000159565b8114620001a457600080fd5b50565b6129e580620001b76000396000f3fe60806040526004361061004e5760003560e01c806323e30c8b1461005a5780635ea5f6a3146100975780638a18b6a5146100c25780638da5cb5b146100ed578063de8308a01461011857610055565b3661005557005b600080fd5b34801561006657600080fd5b50610081600480360381019061007c9190611c64565b610141565b60405161008e9190612342565b60405180910390f35b3480156100a357600080fd5b506100ac6109c0565b6040516100b991906123a9565b60405180910390f35b3480156100ce57600080fd5b506100d76109e4565b6040516100e491906123c4565b60405180910390f35b3480156100f957600080fd5b50610102610a0a565b60405161010f9190612197565b60405180910390f35b34801561012457600080fd5b5061013f600480360381019061013a9190611bc6565b610a30565b005b6000600160009054906101000a900473ffffffffffffffffffffffffffffffffffffffff1673ffffffffffffffffffffffffffffffffffffffff16633d98a1e5336040518263ffffffff1660e01b815260040161019e9190612197565b60206040518083038186803b1580156101b657600080fd5b505afa1580156101ca573d6000803e3d6000fd5b505050506040513d601f19601f820116820180604052508101906101ee9190611d37565b61022d576040517f08c379a0000000000000000000000000000000000000000000000000000000008152600401610224906124bf565b60405180910390fd5b3073ffffffffffffffffffffffffffffffffffffffff168773ffffffffffffffffffffffffffffffffffffffff161461029b576040517f08c379a00000000000000000000000000000000000000000000000000000000081526004016102929061247f565b60405180910390fd5b600080600080600080600089898101906102b59190611b28565b96509650965096509650965096506102ce878488610b0d565b610363858585858773ffffffffffffffffffffffffffffffffffffffff166370a08231306040518263ffffffff1660e01b815260040161030e9190612197565b60206040518083038186803b15801561032657600080fd5b505afa15801561033a573d6000803e3d6000fd5b505050506040513d601f19601f8201168201806040525081019061035e9190611d60565b6112bd565b8173ffffffffffffffffffffffffffffffffffffffff1663db006a758373ffffffffffffffffffffffffffffffffffffffff166370a08231306040518263ffffffff1660e01b81526004016103b89190612197565b60206040518083038186803b1580156103d057600080fd5b505afa1580156103e4573d6000803e3d6000fd5b505050506040513d601f19601f820116820180604052508101906104089190611d60565b6040518263ffffffff1660e01b815260040161042491906124ff565b602060405180830381600087803b15801561043e57600080fd5b505af1158015610452573d6000803e3d6000fd5b505050506040513d601f19601f820116820180604052508101906104769190611d60565b5060008173ffffffffffffffffffffffffffffffffffffffff166370a08231306040518263ffffffff1660e01b81526004016104b29190612197565b60206040518083038186803b1580156104ca57600080fd5b505afa1580156104de573d6000803e3d6000fd5b505050506040513d601f19601f820116820180604052508101906105029190611d60565b11610542576040517f08c379a0000000000000000000000000000000000000000000000000000000008152600401610539906124df565b60405180910390fd5b6105d581888373ffffffffffffffffffffffffffffffffffffffff166370a08231306040518263ffffffff1660e01b81526004016105809190612197565b60206040518083038186803b15801561059857600080fd5b505afa1580156105ac573d6000803e3d6000fd5b505050506040513d601f19601f820116820180604052508101906105d09190611d60565b610b0d565b8a8c6105e19190612667565b8773ffffffffffffffffffffffffffffffffffffffff166370a08231306040518263ffffffff1660e01b815260040161061a9190612197565b60206040518083038186803b15801561063257600080fd5b505afa158015610646573d6000803e3d6000fd5b505050506040513d601f19601f8201168201806040525081019061066a9190611d60565b116106aa576040517f08c379a00000000000000000000000000000000000000000000000000000000081526004016106a19061245f565b60405180910390fd5b7fb78c08116eea973692670a3a0b87d829f37c3a28a2240c68e02147298c6409bc878c8e6106d89190612667565b8973ffffffffffffffffffffffffffffffffffffffff166370a08231306040518263ffffffff1660e01b81526004016107119190612197565b60206040518083038186803b15801561072957600080fd5b505afa15801561073d573d6000803e3d6000fd5b505050506040513d601f19601f820116820180604052508101906107619190611d60565b61076b9190612748565b600260009054906101000a900473ffffffffffffffffffffffffffffffffffffffff1660405161079d93929190612220565b60405180910390a18c73ffffffffffffffffffffffffffffffffffffffff1663095ea7b3338d8f6107ce9190612667565b6040518363ffffffff1660e01b81526004016107eb9291906121f7565b602060405180830381600087803b15801561080557600080fd5b505af1158015610819573d6000803e3d6000fd5b505050506040513d601f19601f8201168201806040525081019061083d9190611d37565b508673ffffffffffffffffffffffffffffffffffffffff1663a9059cbb600260009054906101000a900473ffffffffffffffffffffffffffffffffffffffff168d8f6108899190612667565b8a73ffffffffffffffffffffffffffffffffffffffff166370a08231306040518263ffffffff1660e01b81526004016108c29190612197565b60206040518083038186803b1580156108da57600080fd5b505afa1580156108ee573d6000803e3d6000fd5b505050506040513d601f19601f820116820180604052508101906109129190611d60565b61091c9190612748565b6040518363ffffffff1660e01b81526004016109399291906121f7565b602060405180830381600087803b15801561095357600080fd5b505af1158015610967573d6000803e3d6000fd5b505050506040513d601f19601f8201168201806040525081019061098b9190611d37565b507f7968ba28153757de2da7bce4c2ba9ebaf94445061f3050de1b0de5c34bb7d5d89750505050505050509695505050505050565b60008054906101000a900473ffffffffffffffffffffffffffffffffffffffff1681565b600160009054906101000a900473ffffffffffffffffffffffffffffffffffffffff1681565b600260009054906101000a900473ffffffffffffffffffffffffffffffffffffffff1681565b6000610a3e8685878a611531565b9050600087828888888888604051602001610a5f979695949392919061229c565b60405160208183030381529060405290508873ffffffffffffffffffffffffffffffffffffffff16635cffe9de303085856040518563ffffffff1660e01b8152600401610aaf949392919061235d565b602060405180830381600087803b158015610ac957600080fd5b505af1158015610add573d6000803e3d6000fd5b505050506040513d601f19601f82011682018060405250810190610b019190611d37565b50505050505050505050565b60008373ffffffffffffffffffffffffffffffffffffffff166370a08231306040518263ffffffff1660e01b8152600401610b489190612197565b60206040518083038186803b158015610b6057600080fd5b505afa158015610b74573d6000803e3d6000fd5b505050506040513d601f19601f82011682018060405250810190610b989190611d60565b11610bd8576040517f08c379a0000000000000000000000000000000000000000000000000000000008152600401610bcf906123ff565b60405180910390fd5b60608373ffffffffffffffffffffffffffffffffffffffff1673b31f66aa3c1e785363f0875a1b74e27b85fd66c773ffffffffffffffffffffffffffffffffffffffff161480610c6757508273ffffffffffffffffffffffffffffffffffffffff1673b31f66aa3c1e785363f0875a1b74e27b85fd66c773ffffffffffffffffffffffffffffffffffffffff16145b15610dcd57600267ffffffffffffffff811115610cad577f4e487b7100000000000000000000000000000000000000000000000000000000600052604160045260246000fd5b604051908082528060200260200182016040528015610cdb5781602001602082028036833780820191505090505b5090508381600081518110610d19577f4e487b7100000000000000000000000000000000000000000000000000000000600052603260045260246000fd5b602002602001019073ffffffffffffffffffffffffffffffffffffffff16908173ffffffffffffffffffffffffffffffffffffffff16815250508281600181518110610d8e577f4e487b7100000000000000000000000000000000000000000000000000000000600052603260045260246000fd5b602002602001019073ffffffffffffffffffffffffffffffffffffffff16908173ffffffffffffffffffffffffffffffffffffffff1681525050610fb3565b600367ffffffffffffffff811115610e0e577f4e487b7100000000000000000000000000000000000000000000000000000000600052604160045260246000fd5b604051908082528060200260200182016040528015610e3c5781602001602082028036833780820191505090505b5090508381600081518110610e7a577f4e487b7100000000000000000000000000000000000000000000000000000000600052603260045260246000fd5b602002602001019073ffffffffffffffffffffffffffffffffffffffff16908173ffffffffffffffffffffffffffffffffffffffff168152505073b31f66aa3c1e785363f0875a1b74e27b85fd66c781600181518110610f03577f4e487b7100000000000000000000000000000000000000000000000000000000600052603260045260246000fd5b602002602001019073ffffffffffffffffffffffffffffffffffffffff16908173ffffffffffffffffffffffffffffffffffffffff16815250508281600281518110610f78577f4e487b7100000000000000000000000000000000000000000000000000000000600052603260045260246000fd5b602002602001019073ffffffffffffffffffffffffffffffffffffffff16908173ffffffffffffffffffffffffffffffffffffffff16815250505b8373ffffffffffffffffffffffffffffffffffffffff1663095ea7b360008054906101000a900473ffffffffffffffffffffffffffffffffffffffff16846040518363ffffffff1660e01b815260040161100e9291906121f7565b602060405180830381600087803b15801561102857600080fd5b505af115801561103c573d6000803e3d6000fd5b505050506040513d601f19601f820116820180604052508101906110609190611d37565b5060008054906101000a900473ffffffffffffffffffffffffffffffffffffffff1673ffffffffffffffffffffffffffffffffffffffff166338ed17398360008430603c426110af9190612667565b6040518663ffffffff1660e01b81526004016110cf95949392919061254a565b600060405180830381600087803b1580156110e957600080fd5b505af11580156110fd573d6000803e3d6000fd5b505050506040513d6000823e3d601f19601f820116820180604052508101906111269190611cf6565b5060008373ffffffffffffffffffffffffffffffffffffffff166370a08231306040518263ffffffff1660e01b81526004016111629190612197565b60206040518083038186803b15801561117a57600080fd5b505afa15801561118e573d6000803e3d6000fd5b505050506040513d601f19601f820116820180604052508101906111b29190611d60565b116111f2576040517f08c379a00000000000000000000000000000000000000000000000000000000081526004016111e99061241f565b60405180910390fd5b7ffa2dda1cc1b86e41239702756b13effbc1a092b5c57e3ad320fbe4f3b13fe2358484848673ffffffffffffffffffffffffffffffffffffffff166370a08231306040518263ffffffff1660e01b815260040161124f9190612197565b60206040518083038186803b15801561126757600080fd5b505afa15801561127b573d6000803e3d6000fd5b505050506040513d601f19601f8201168201806040525081019061129f9190611d60565b6040516112af94939291906121b2565b60405180910390a150505050565b8273ffffffffffffffffffffffffffffffffffffffff1663095ea7b385836040518363ffffffff1660e01b81526004016112f89291906121f7565b602060405180830381600087803b15801561131257600080fd5b505af1158015611326573d6000803e3d6000fd5b505050506040513d601f19601f8201168201806040525081019061134a9190611d37565b5060008473ffffffffffffffffffffffffffffffffffffffff1663f5e3c4628784866040518463ffffffff1660e01b815260040161138a9392919061230b565b602060405180830381600087803b1580156113a457600080fd5b505af11580156113b8573d6000803e3d6000fd5b505050506040513d601f19601f820116820180604052508101906113dc9190611d60565b905060008114611421576040517f08c379a00000000000000000000000000000000000000000000000000000000081526004016114189061243f565b60405180910390fd5b60008373ffffffffffffffffffffffffffffffffffffffff166370a08231306040518263ffffffff1660e01b815260040161145c9190612197565b60206040518083038186803b15801561147457600080fd5b505afa158015611488573d6000803e3d6000fd5b505050506040513d601f19601f820116820180604052508101906114ac9190611d60565b116114ec576040517f08c379a00000000000000000000000000000000000000000000000000000000081526004016114e3906123df565b60405180910390fd5b7f389b04ed86f46bb0dd76ff53ee69ad27201f4f2195d5909d6274156b66d2dfc4868387866040516115219493929190612257565b60405180910390a1505050505050565b6000808373ffffffffffffffffffffffffffffffffffffffff166395dd9193876040518263ffffffff1660e01b815260040161156d9190612197565b60206040518083038186803b15801561158557600080fd5b505afa158015611599573d6000803e3d6000fd5b505050506040513d601f19601f820116820180604052508101906115bd9190611d60565b90506000600160009054906101000a900473ffffffffffffffffffffffffffffffffffffffff1673ffffffffffffffffffffffffffffffffffffffff1663e87554466040518163ffffffff1660e01b815260040160206040518083038186803b15801561162957600080fd5b505afa15801561163d573d6000803e3d6000fd5b505050506040513d601f19601f820116820180604052508101906116619190611d60565b90506000670de0b6b3a7640000828461167a91906126ee565b61168491906126bd565b90506000600267ffffffffffffffff8111156116c9577f4e487b7100000000000000000000000000000000000000000000000000000000600052604160045260246000fd5b6040519080825280602002602001820160405280156116f75781602001602082028036833780820191505090505b5090508581600081518110611735577f4e487b7100000000000000000000000000000000000000000000000000000000600052603260045260246000fd5b602002602001019073ffffffffffffffffffffffffffffffffffffffff16908173ffffffffffffffffffffffffffffffffffffffff168152505087816001815181106117aa577f4e487b7100000000000000000000000000000000000000000000000000000000600052603260045260246000fd5b602002602001019073ffffffffffffffffffffffffffffffffffffffff16908173ffffffffffffffffffffffffffffffffffffffff16815250506000600267ffffffffffffffff811115611827577f4e487b7100000000000000000000000000000000000000000000000000000000600052604160045260246000fd5b6040519080825280602002602001820160405280156118555781602001602082028036833780820191505090505b50905060008054906101000a900473ffffffffffffffffffffffffffffffffffffffff1673ffffffffffffffffffffffffffffffffffffffff16631f00ca7484846040518363ffffffff1660e01b81526004016118b392919061251a565b60006040518083038186803b1580156118cb57600080fd5b505afa1580156118df573d6000803e3d6000fd5b505050506040513d6000823e3d601f19601f820116820180604052508101906119089190611cf6565b905080600081518110611944577f4e487b7100000000000000000000000000000000000000000000000000000000600052603260045260246000fd5b6020026020010151955060008160008151811061198a577f4e487b7100000000000000000000000000000000000000000000000000000000600052603260045260246000fd5b6020026020010151116119d2576040517f08c379a00000000000000000000000000000000000000000000000000000000081526004016119c99061249f565b60405180910390fd5b5050505050949350505050565b60006119f26119ed846125d5565b6125a4565b90508083825260208201905082856020860282011115611a1157600080fd5b60005b85811015611a415781611a278882611b13565b845260208401935060208301925050600181019050611a14565b5050509392505050565b600081359050611a5a81612953565b92915050565b600081359050611a6f8161296a565b92915050565b600082601f830112611a8657600080fd5b8151611a968482602086016119df565b91505092915050565b600081519050611aae81612981565b92915050565b60008083601f840112611ac657600080fd5b8235905067ffffffffffffffff811115611adf57600080fd5b602083019150836001820283011115611af757600080fd5b9250929050565b600081359050611b0d81612998565b92915050565b600081519050611b2281612998565b92915050565b600080600080600080600060e0888a031215611b4357600080fd5b6000611b518a828b01611a60565b9750506020611b628a828b01611afe565b9650506040611b738a828b01611a60565b9550506060611b848a828b01611a60565b9450506080611b958a828b01611a60565b93505060a0611ba68a828b01611a60565b92505060c0611bb78a828b01611a60565b91505092959891949750929550565b600080600080600080600060e0888a031215611be157600080fd5b6000611bef8a828b01611a4b565b9750506020611c008a828b01611a4b565b9650506040611c118a828b01611a4b565b9550506060611c228a828b01611a4b565b9450506080611c338a828b01611a4b565b93505060a0611c448a828b01611a4b565b92505060c0611c558a828b01611a4b565b91505092959891949750929550565b60008060008060008060a08789031215611c7d57600080fd5b6000611c8b89828a01611a4b565b9650506020611c9c89828a01611a4b565b9550506040611cad89828a01611afe565b9450506060611cbe89828a01611afe565b935050608087013567ffffffffffffffff811115611cdb57600080fd5b611ce789828a01611ab4565b92509250509295509295509295565b600060208284031215611d0857600080fd5b600082015167ffffffffffffffff811115611d2257600080fd5b611d2e84828501611a75565b91505092915050565b600060208284031215611d4957600080fd5b6000611d5784828501611a9f565b91505092915050565b600060208284031215611d7257600080fd5b6000611d8084828501611b13565b91505092915050565b6000611d958383611da1565b60208301905092915050565b611daa8161277c565b82525050565b611db98161277c565b82525050565b6000611dca82612611565b611dd48185612634565b9350611ddf83612601565b8060005b83811015611e10578151611df78882611d89565b9750611e0283612627565b925050600181019050611de3565b5085935050505092915050565b611e26816127ac565b82525050565b6000611e378261261c565b611e418185612645565b9350611e51818560208601612882565b611e5a81612942565b840191505092915050565b611e6e816127e0565b82525050565b611e7d81612804565b82525050565b611e8c81612828565b82525050565b611e9b8161284c565b82525050565b611eaa81612870565b82525050565b6000611ebd601683612656565b91507f5365697a6564206a546f6b656e73206973207a65726f000000000000000000006000830152602082019050919050565b6000611efd601883612656565b91507f546f6b656e20696e2062616c616e6365206973207a65726f00000000000000006000830152602082019050919050565b6000611f3d601983612656565b91507f546f6b656e206f75742062616c616e6365206973207a65726f000000000000006000830152602082019050919050565b6000611f7d602283612656565b91507f4572726f72207768696c6520617474656d7074696e67206c697175696461746960008301527f6f6e0000000000000000000000000000000000000000000000000000000000006020830152604082019050919050565b6000611fe3603183612656565b91507f5365697a656420616d6f756e74206c657373207468616e20666c6173686c6f6160008301527f6e20616d6f756e7420706c7573206665650000000000000000000000000000006020830152604082019050919050565b6000612049602783612656565b91507f466c617368426f72726f7765723a20556e74727573746564206c6f616e20696e60008301527f69746961746f72000000000000000000000000000000000000000000000000006020830152604082019050919050565b60006120af602283612656565b91507f526570617920616d6f756e742063616c63756c6174656420746f206265207a6560008301527f726f0000000000000000000000000000000000000000000000000000000000006020830152604082019050919050565b6000612115601883612656565b91507f756e74727573746564206d6573736167652073656e64657200000000000000006000830152602082019050919050565b6000612155602083612656565b91507f5365697a656420756e6465726c79696e6720617373657473206973207a65726f6000830152602082019050919050565b612191816127d6565b82525050565b60006020820190506121ac6000830184611db0565b92915050565b60006080820190506121c76000830187611db0565b6121d46020830186611db0565b6121e16040830185612188565b6121ee6060830184612188565b95945050505050565b600060408201905061220c6000830185611db0565b6122196020830184612188565b9392505050565b60006060820190506122356000830186611db0565b6122426020830185612188565b61224f6040830184611db0565b949350505050565b600060808201905061226c6000830187611db0565b6122796020830186612188565b6122866040830185611db0565b6122936060830184611db0565b95945050505050565b600060e0820190506122b1600083018a611db0565b6122be6020830189612188565b6122cb6040830188611db0565b6122d86060830187611db0565b6122e56080830186611db0565b6122f260a0830185611db0565b6122ff60c0830184611db0565b98975050505050505050565b60006060820190506123206000830186611db0565b61232d6020830185612188565b61233a6040830184611e74565b949350505050565b60006020820190506123576000830184611e1d565b92915050565b60006080820190506123726000830187611e65565b61237f6020830186611db0565b61238c6040830185612188565b818103606083015261239e8184611e2c565b905095945050505050565b60006020820190506123be6000830184611e83565b92915050565b60006020820190506123d96000830184611e92565b92915050565b600060208201905081810360008301526123f881611eb0565b9050919050565b6000602082019050818103600083015261241881611ef0565b9050919050565b6000602082019050818103600083015261243881611f30565b9050919050565b6000602082019050818103600083015261245881611f70565b9050919050565b6000602082019050818103600083015261247881611fd6565b9050919050565b600060208201905081810360008301526124988161203c565b9050919050565b600060208201905081810360008301526124b8816120a2565b9050919050565b600060208201905081810360008301526124d881612108565b9050919050565b600060208201905081810360008301526124f881612148565b9050919050565b60006020820190506125146000830184612188565b92915050565b600060408201905061252f6000830185612188565b81810360208301526125418184611dbf565b90509392505050565b600060a08201905061255f6000830188612188565b61256c6020830187611ea1565b818103604083015261257e8186611dbf565b905061258d6060830185611db0565b61259a6080830184612188565b9695505050505050565b6000604051905081810181811067ffffffffffffffff821117156125cb576125ca612913565b5b8060405250919050565b600067ffffffffffffffff8211156125f0576125ef612913565b5b602082029050602081019050919050565b6000819050602082019050919050565b600081519050919050565b600081519050919050565b6000602082019050919050565b600082825260208201905092915050565b600082825260208201905092915050565b600082825260208201905092915050565b6000612672826127d6565b915061267d836127d6565b9250827fffffffffffffffffffffffffffffffffffffffffffffffffffffffffffffffff038211156126b2576126b16128b5565b5b828201905092915050565b60006126c8826127d6565b91506126d3836127d6565b9250826126e3576126e26128e4565b5b828204905092915050565b60006126f9826127d6565b9150612704836127d6565b9250817fffffffffffffffffffffffffffffffffffffffffffffffffffffffffffffffff048311821515161561273d5761273c6128b5565b5b828202905092915050565b6000612753826127d6565b915061275e836127d6565b925082821015612771576127706128b5565b5b828203905092915050565b6000612787826127b6565b9050919050565b6000612799826127b6565b9050919050565b60008115159050919050565b6000819050919050565b600073ffffffffffffffffffffffffffffffffffffffff82169050919050565b6000819050919050565b60006127eb826127f2565b9050919050565b60006127fd826127b6565b9050919050565b600061280f82612816565b9050919050565b6000612821826127b6565b9050919050565b60006128338261283a565b9050919050565b6000612845826127b6565b9050919050565b60006128578261285e565b9050919050565b6000612869826127b6565b9050919050565b600061287b826127d6565b9050919050565b60005b838110156128a0578082015181840152602081019050612885565b838111156128af576000848401525b50505050565b7f4e487b7100000000000000000000000000000000000000000000000000000000600052601160045260246000fd5b7f4e487b7100000000000000000000000000000000000000000000000000000000600052601260045260246000fd5b7f4e487b7100000000000000000000000000000000000000000000000000000000600052604160045260246000fd5b6000601f19601f8301169050919050565b61295c8161277c565b811461296757600080fd5b50565b6129738161278e565b811461297e57600080fd5b50565b61298a816127a0565b811461299557600080fd5b50565b6129a1816127d6565b81146129ac57600080fd5b5056fea26469706673582212208f45d72c06191c8a1e840a7dd6c4222de1c26a1972aaca2a19416b20a62073f864736f6c63430008000033",
  "linkReferences": {},
  "deployedLinkReferences": {}
}